:020000040800F2
:100000000010002081150008E3060008E50600083E
:1000100000000000000000000000000000000000E0
:10002000000000000000000000000000E7060008DB
:100030000000000000000000E9060008EB060008D0
:10004000D115000800000000D1150008D1150008E6
:10005000D1150008D1150008D1150008D1150008E8
:1000600000000000D1150008D1150008D1150008C6
:10007000D1150008D1150008D115000800000000B6
:10008000D11500080000000000000000D115000894
:1000900000000000D1150008D1150008D115000896
:1000A00000000000D115000800000000D115000874
:1000B0000000000000000000000000000000000040
:1000C00010B5064C2378002B07D1054B002B02D02E
:1000D000044800E000BF0123237010BD0800002089
:1000E000000000002C160008044B10B5002B03D0B4
:1000F0000349044800E000BF10BDC04600000000F6
:100100000C0000202C160008002243088B4274D3F8
:1001100003098B425FD3030A8B4244D3030B8B4208
:1001200028D3030C8B420DD3FF22090212BA030C11
:100130008B4202D31212090265D0030B8B4219D3F2
:1001400000E0090AC30B8B4201D3CB03C01A524112
:10015000830B8B4201D38B03C01A5241430B8B425A
:1001600001D34B03C01A5241030B8B4201D30B0343
:10017000C01A5241C30A8B4201D3CB02C01A52416A
:10018000830A8B4201D38B02C01A5241430A8B422D
:1001900001D34B02C01A5241030A8B4201D30B0216
:1001A000C01A5241CDD2C3098B4201D3CB01C01A30
:1001B000524183098B4201D38B01C01A524143093A
:1001C0008B4201D34B01C01A524103098B4201D328
:1001D0000B01C01A5241C3088B4201D3CB00C01A95
:1001E000524183088B4201D38B00C01A524143080D
:1001F0008B4201D34B00C01A5241411A00D2014632
:10020000524110467047FFE701B5002000F0F0F8BA
:1002100002BDC0460029F7D076E7704703460B437E
:100220007FD4002243088B4274D303098B425FD3EF
:10023000030A8B4244D3030B8B4228D3030C8B421B
:100240000DD3FF22090212BA030C8B4202D3121201
:10025000090265D0030B8B4219D300E0090AC30BD6
:100260008B4201D3CB03C01A5241830B8B4201D383
:100270008B03C01A5241430B8B4201D34B03C01A6C
:100280005241030B8B4201D30B03C01A5241C30AE4
:100290008B4201D3CB02C01A5241830A8B4201D355
:1002A0008B02C01A5241430A8B4201D34B02C01A3F
:1002B0005241030A8B4201D30B02C01A5241CDD2E4
:1002C000C3098B4201D3CB01C01A524183098B422F
:1002D00001D38B01C01A524143098B4201D34B0118
:1002E000C01A524103098B4201D30B01C01A52417B
:1002F000C3088B4201D3CB00C01A524183088B4202
:1003000001D38B00C01A524143088B4201D34B00EA
:10031000C01A5241411A00D201465241104670475C
:100320005DE0CA0F00D04942031000D34042534061
:1003300000229C4603098B422DD3030A8B4212D321
:10034000FC22890112BA030A8B420CD38901921153
:100350008B4208D3890192118B4204D389013AD090
:10036000921100E08909C3098B4201D3CB01C01A65
:10037000524183098B4201D38B01C01A5241430978
:100380008B4201D34B01C01A524103098B4201D366
:100390000B01C01A5241C3088B4201D3CB00C01AD3
:1003A000524183088B4201D38B00C01A5241D9D2EB
:1003B00043088B4201D34B00C01A5241411A00D26C
:1003C0000146634652415B10104601D34042002B68
:1003D00000D54942704763465B1000D3404201B5E7
:1003E000002000F005F802BD0029F8D016E770479C
:1003F0007047C04670B586B01422002101A801F0F4
:100400000DF9134A516980208002014351615369FB
:1004100003400093009B9024E40500220821200063
:1004200000F0E7FD062301930025029501260396BF
:1004300001A9200000F000FD082301930296039516
:10044000049501A9200000F0F7FC06B070BDC0467D
:100450000010024030B585B00C22002101A801F047
:10046000DDF8124C124B236000256560A560E56045
:100470000123236108226261A561E561236265624F
:10048000C222FF32A262E56225636363200000F0AE
:1004900087FE019580235B01029380235B05039314
:1004A00001A9200000F0D0FF05B030BD3C000020C5
:1004B0000024014010B5C106091A89000918C900B5
:1004C000091AC8235B029C466144090B0A3149B2F0
:1004D000322359430248FFF7A1FE024B187010BDAA
:1004E00060EA00000000002010B5902001220821E1
:1004F000C00500F07EFD10BD10B59020002208213F
:10050000C00500F076FD10BD10B590200221C00599
:1005100000F068FD43425841C0B210BD10B59020B4
:100520000421C00500F05EFD43425841C0B210BD39
:1005300070B504000D001600354B1B78002B03D05E
:10054000344B1B68834239D9334B1B78002B14D1B1
:10055000002D03D0314B1B78022B35D0002E03D059
:100560002E4B1B78012B33D02D4B1B68A34204D29A
:10057000002D31D0284B01221A702A4B1B68A34250
:100580001BD2254B1B78002B17D0012B2AD0022B16
:1005900033D0224A1370204B00221A70224B1C6069
:1005A000224B1B785BB21B4A12689B181D4A1360D2
:1005B000174B01221A70FFF797FF70BDFFF79CFFE2
:1005C000134B00221A70BFE7134B01221A70D4E7B5
:1005D000114B02221A70D0E7002ECED00E4B022211
:1005E0001A70CAE7114A127852B210190949086004
:1005F000520012190A490A60CBE70C4A00215156F1
:100600004A005218121903490A6005490A60C0E7F6
:1006100024000020300000202D0000202C000020AD
:1006200028000020380000203400002000000020B6
:1006300010B5FFF761FF024800F072FE10BDC04622
:100640003C00002070B5FFF75FFF0400FFF766FF76
:10065000050000F0D9FB2A002100FFF769FF012106
:10066000064C4942200000F08BFE200000F0E8FE1E
:10067000FFF720FF052000F0CDFB70BD3C000020FF
:1006800010B590B02C22002105A800F0C7FF10245F
:1006900010220021684600F0C1FF12230493113B91
:1006A0000793099308940A94002404A800F06CF8B6
:1006B000072300930194029403940021684600F0FC
:1006C000C7FA10B010BD10B500F086FBFFF7D8FFD9
:1006D000FFF790FEFFF7BEFEFFF7AAFFFFF7B2FF9E
:1006E000FCE77047FEE77047704710B500F084FBE9
:1006F00010BD000082B00A4B996901221143996133
:1007000099690A400092009ADA69802149050A43F2
:10071000DA61DB690B400193019B02B07047C04670
:100720000010024010B588B004001422002103A874
:1007300000F074FF2268124B9A4201D008B010BD3D
:10074000104B996980208000014399619A690240A9
:100750000192019A5A69802189020A435A615B69B0
:100760000B400293029B0123039302330493002363
:1007700005937138FF3803A9C00500F05DFBDDE784
:10078000002401400010024070B582B004000368EC
:10079000DB0726D5AE4B5A680C231340042B18D028
:1007A000AB4B5A680C231340082B0ED06368012B07
:1007B0003CD0002B51D1A64B1A68A6490A401A60BA
:1007C0001A68A5490A401A6036E0A14B5B68DB0352
:1007D000ECD59F4B1B689B0303D56368002B00D1AE
:1007E000ECE123689B0772D5994B5B680C221A4297
:1007F0005DD0974B5A680C231340082B53D0E36805
:10080000002B00D185E0924A136801210B4313604D
:1008100000F0FAFA05008E4B1B689B0770D400F0BD
:10082000F3FA401B0228F6D90320CCE1884A11686C
:1008300080235B020B4313606368002B25D000F01C
:10084000E3FA0500824B1B689B03CAD400F0DCFA74
:10085000401B6428F6D90320B5E1052B09D07C4B59
:100860001A687C490A401A601A687B490A401A6073
:10087000E2E7774B19688022D2020A431A601968AE
:10088000802252020A431A60D6E700F0BDFA050042
:100890006F4B1B689B03A4D500F0B6FA401B64287D
:1008A000F6D903208FE16A4B5B68DB03A7D4684B62
:1008B0001B689B0703D5E368012B00D080E16449E6
:1008C0000B68F82293432269D20013430B6023681C
:1008D0001B0744D5E369002B2ED05D4A536A0121E2
:1008E0000B43536200F090FA0500594B5B6A9B077B
:1008F00035D400F089FA401B0228F6D9032062E1C2
:1009000053490B68F82293432269D20013430B60CA
:10091000DDE74F4A136801218B43136000F074FA3E
:1009200005004B4B1B689B07D1D500F06DFA401BAF
:100930000228F6D9032046E1454A536A01218B4338
:10094000536200F061FA0500414B5B6A9B0706D5D4
:1009500000F05AFA401B0228F6D9032033E123683D
:100960005B0700D480E03A4BDB69DB000BD4384AEC
:10097000D169802040050143D161D36903400193CF
:10098000019B012500E00025344B1B68DB050ED5DB
:10099000A368012B1FD0002B34D12D4B1A6A0121E3
:1009A0008A431A621A6A03318A431A6218E02B4A90
:1009B000116880235B000B43136000F025FA0600EA
:1009C000264B1B68DB05E3D400F01EFA801B64286D
:1009D000F6D90320F7E01E4A136A01210B43136284
:1009E000A368002B24D000F00FFA0600184B1B6AF6
:1009F0009B0737D400F008FA801B194B9842F5D9B1
:100A00000320E0E0052B09D0114B1A6A01218A432B
:100A10001A621A6A03318A431A62E1E70C4B1A6AB6
:100A200004210A431A621A6A03390A431A62D7E791
:100A300000F0EAF90600064B1B6A9B0712D500F08E
:100A4000E3F9801B064B9842F5D90320BBE0C04672
:100A500000100240FFFFFEFFFFFFFBFF00700040A1
:100A600088130000012D33D02368DB0610D563699D
:100A7000012B33D0053351D1554A536B04218B439D
:100A80005363536BF4318B43A169C9000B43536328
:100A9000236A002B00D195E04D4A51680C220A4090
:100AA000082A00D191E0022B4FD0494A13684949E6
:100AB0000B40136000F0A8F90400454B1B689B0134
:100AC0007AD500F0A1F9001B0228F6D903207AE0BC
:100AD0003F4AD36940490B40D361C5E73C4B5A6B51
:100AE00004210A435A635A6B03390A435A6300F0DC
:100AF0008BF90500364B5B6B9B0706D400F084F93D
:100B0000401B0228F6D903205DE031494B6BF822E7
:100B10009343A269D20013434B63B9E72C4B5A6B42
:100B200004210A435A635A6B03398A435A6300F01B
:100B30006BF90500264B5B6B9B07A9D500F064F9A8
:100B4000401B0228F6D903203DE0214A13682149C1
:100B50000B40136000F058F905001D4B1B689B010A
:100B600006D500F051F9401B0228F6D903202AE0EF
:100B7000174BDA6A0F218A43E16A0A43DA625A683C
:100B800016490A40A16A606A01430A435A6019681B
:100B9000802252040A431A6000F036F904000C4B1C
:100BA0001B689B0106D400F02FF9001B0228F6D920
:100BB000032008E0002006E0002004E0012002E01D
:100BC000012000E0002002B070BD0120FBE7C0461C
:100BD00000100240FFFFFFFEFFFFFFEFFFFFC2FF1D
:100BE00010B588B004AA164B13CB13C21B68136050
:100BF0006A46144B13CB13C21B681360124B5A681E
:100C00000C231340082B02D0104808B010BD910CE3
:100C10000733194004A8445C0B49C96A0B40694674
:100C2000C95CD30304D50948FFF76EFA6043ECE7CB
:100C300063011B1B9801C01AC00000190002E4E701
:100C400044160008581600080010024000127A00EE
:100C500070B504000D004E4B1A68012313408B42FF
:100C60000AD24B490B68012293432B430B600B685C
:100C70001A40AA4200D084E023689B0706D5454A63
:100C80005368F0218B43A1680B4353602368DB0753
:100C90004CD56368012B21D0022B25D03D4A126828
:100CA000920700D46FE03B494A6803208243134314
:100CB0004B6000F0A9F806006368012B1AD0022BE4
:100CC00026D0344B5B680C221A422FD000F09CF8DF
:100CD000801B314A9042F4D9032051E02D4A12681A
:100CE0009203E0D401204BE02A4A12689201DAD440
:100CF000012045E0274B5A680C231340042B15D0E4
:100D000000F082F8801B244A9042F3D9032037E098
:100D1000204B5A680C231340082B07D000F074F8BE
:100D2000801B1D4B9842F3D9032029E0184B1A6809
:100D300001231340AB4209D915490B6801229343A3
:100D40002B430B600B681A40AA421ED123685B0735
:100D500006D5104A536811490B40E1680B435360B4
:100D6000FFF73EFF0B4B5A6812090F2313400C4A42
:100D7000D35CD8400B4B1860002000F01BF800201B
:100D800070BD0120FCE70120FAE70120F8E7C0462A
:100D9000002002400010024088130000FFF8FFFF0F
:100DA0006C16000804000020014B18687047C0460C
:100DB0000400002010B50400FFF7F6FFFA218900B7
:100DC000FFF7A2F900F04CF9012000222100404277
:100DD00000F016F9002010BD10B5064A1368102166
:100DE0000B4313600020FFF7E5FFFFF783FC0020B3
:100DF00010BDC04600200240024A13680133136050
:100E00007047C04688000020014B18687047C046F4
:100E10008800002030B583B00190FFF7F5FF050092
:100E2000019C631C00D00134FFF7EEFF401BA04281
:100E3000FAD303B030BD0000F0B5D6464F46464663
:100E4000C0B582B0002338E0032600E00026A640AB
:100E500034003C43023292005C4E94515C4A146868
:100E60004A46D24326004D46AE434D68ED0302D5B7
:100E70004D462C432600564C2660646826001640DA
:100E80004D68AD0302D54D462C432600504C66609C
:100E9000A468260016404D68ED0202D54D462C434D
:100EA00026004B4CA660E46822404D68AD0201D597
:100EB0004A462243464CE26001330C682200DA4085
:100EC0007DD001229A4025001540A9461442F3D056
:100ED0004C68022C01D0122C0ED1DC080834A4007E
:100EE000275807261E40B6000F25B540AF430D69B1
:100EF000B5402E003E4326500468A4465E000324FD
:100F0000A2462700B740B846FF4365464446A5437E
:100F1000AC464C68554625402C00B44065462C43F1
:100F200004604C68651E012D03D9112C01D0122CD0
:100F300013D184683C40A446CC68B44065462C4339
:100F400084604468944322004C682409A446012428
:100F500065462C409C4014434460C26817408A6830
:100F6000B2403A43C2604A68D200A5D5194CA6697E
:100F700001221643A661A46922400192019A9A08AF
:100F8000941CA400114EA75903241C40A4000F2652
:100F9000A640B7439026F605B04200D156E70E4E64
:100FA000B04208D00D4EB04207D00D4EB04200D135
:100FB0004AE705264BE7012649E7022647E702B044
:100FC0001CBC90469946A246F0BDC04600000140B8
:100FD00000040140001002400004004800080048DE
:100FE000000C004803690B4201D00120704700202B
:100FF000FCE7002A01D0816170478162FCE70000B4
:1010000070B5002811DB8308134DC0339B005C5979
:1010100003221040C000FC3216008640B443890110
:101020000A40824022435A5170BD0F230340083BBF
:101030009B0806339B00094A944663445D68032479
:101040002040C000FF2214008440A54389010A40CB
:1010500082402A435A60E7E700E100E000ED00E04B
:10106000013880235B0498420FD2094A5060094836
:10107000036A1B021B0AC02109060B4303620023FB
:10108000936007331360002070470120FCE7C046DF
:1010900010E000E000ED00E0114B1A6801210A4366
:1010A0001A605A680F4802405A601A680E48024097
:1010B0001A601A680D4802401A605A680C480240CB
:1010C0005A60DA6A0F208243DA621A6B09480240DA
:1010D0001A635A6B8A435A6300229A607047C0466B
:1010E000001002400CB8FF08FFFFF6FEFFFFFBFFF9
:1010F000FFFFC0FFECFEFFFF30B583B0040000230C
:1011000001930368996803220A40012A14D0996860
:10111000204A114218D19A6801210A439A601E4B55
:1011200018681E49FEF7F0FF0190019B002B16D0B6
:10113000019B013B0193F8E71A68D20727D4DA68CC
:101140001204E4D5002008E0636C102213436364AA
:10115000A36C0F3A1343A364012003B030BDFFF723
:1011600053FE050023681B68DB070ED4FFF74CFE17
:10117000401B0228F6D9636C102213436364A36CEE
:101180000F3A1343A3640120E7E70020E5E70020BE
:10119000E3E7C046170000800400002040420F0033
:1011A00070B5041E00D1B2E0436C002B7FD0636C9D
:1011B000DB0600D5A5E022689168042005000D40FB
:1011C000084200D09DE0616C524B19400633FF335A
:1011D00019436164916801330B40012B6DD0D368D2
:1011E00018218B43A1680B43D360226813699B00CD
:1011F0009B0861680B4313612268D36846490B4022
:10120000D360A3699B03E269D2031343216A4A03B3
:101210001343626B012A57D0802252011343E268C4
:1012200013432269022A51D02B43226B52001343ED
:10123000626A012A4CD0A26AC221FF318A4202D0DE
:10124000E16A0A4313432168CA681A43CA60A26B61
:10125000802149058A420DD0012A0BD0022A09D0EB
:10126000032A07D0042A05D0052A03D0062A01D074
:10127000072A0AD120684169072291434161206809
:101280004169A56B2A400A4342612268D26823491A
:101290000A409A422BD0636C12229343023A1343C2
:1012A0006364A36C0F3A1343A36401202EE08364AC
:1012B00040228354FFF736FA79E71368DB079BD4A3
:1012C000D3681B0498D48AE72A00A7E70425ABE774
:1012D000002903D1802252021343ACE7626C202123
:1012E0000A436264A26C1F390A43A264A3E7002385
:1012F000A364636C03229343023A134363640020A4
:1013000004E0636C102213436364012070BD01206C
:10131000FCE7C046FDFEFFFF1902FEFFE7FF3F832B
:1013200010B5040003689B685B0723D44023C35CAB
:10133000012B21D040230122C254C369012B14D1B7
:101340000020636C0D4A1A4080235B0013436364E2
:101350000023A3644022A3542368243A1A6022681D
:10136000936804210B43936010BDFFF7C5FE00286E
:10137000FAD1E6E70220F7E70220F5E7FEF0FFFFEB
:10138000F8B504000D004669082E04D00368DB6838
:10139000DB0719D40C26FFF737FD070023681A680E
:1013A00016421AD16B1CF9D0002D04D0FFF72CFD8A
:1013B000C01BA842F2D9636C042213436364402328
:1013C0000022E25403202DE0436C202213434364A7
:1013D00040230022C254012024E0616C802292004C
:1013E0000A436264D968C0221201114213D1226AF1
:1013F000002A10D11A6812070DD59A68520712D424
:101400005A680C218A435A60636C0C4A13400432B8
:10141000FF3213436364A369002B0DD123680C22B0
:101420001A600020F8BD636C202213436364A36C30
:101430001F3A1343A364EEE70020F3E7FEFEFFFF2D
:101440000368186C7047000030B583B004000023B7
:1014500001934033C35C012B00D182E04023012281
:10146000C25403689A68520771D43F4A4868904250
:1014700054D09A6A01200D68A84002439A62A36B77
:101480008022520593421ED0012B1CD0022B1AD071
:10149000032B18D0042B16D0052B14D0062B12D0FA
:1014A000072B10D0226850690723034088689842B0
:1014B00009D05069072398435061206842698D68BC
:1014C0002B40134343610B681A00103A012A01D9DB
:1014D000002041E0254A1268102B09D08023DB034D
:1014E0001343224A13600B68102B04D0002033E012
:1014F00080231B04F4E71E4B18681E49FEF704FE08
:1015000003008000C01840000190019B002B03D015
:10151000019B013B0193F8E700201DE09A6A01203E
:101520000D68A84082439A620B681A00103A012A9B
:1015300001D9002010E00D4A1268102B05D00E4B87
:1015400013400A4A1360002006E00C4BF8E7436C96
:10155000202213434364012040230022E25403B0BD
:1015600030BD0220FBE7C046011000000827014003
:101570000400002040420F00FFFFBFFFFFFF7FFF7E
:101580000D4885460D480E490E4A002302E0D45806
:10159000C4500433C4188C42F9D30B4A0B4C0023BB
:1015A00001E013600432A242FBD3FFF775FD00F0A7
:1015B00011F8FFF788F8FEE7001000200000002077
:1015C0000800002084160008080000208C0000207D
:1015D000FEE7000070B500260C4D0D4C641BA410F6
:1015E000A64209D1002600F021F80A4D0A4C641BDE
:1015F000A410A64205D170BDB300EB589847013640
:10160000EEE7B300EB5898470136F2E77C16000886
:101610007C1600087C16000880160008030082185B
:10162000934200D1704719700133F9E7F8B5C0460D
:10163000F8BC08BC9E467047F8B5C046F8BC08BC6C
:041640009E4670470B
:1016440002030405060708090A0B0C0D0E0F1010FF
:10165400000000000102030405060708090A0B0C38
:101664000D0E0F100000000000000000000000003C
:08167400010203040607080946
:04167C00E900000879
:04168000C10000089D
:081684003F00000000127A0093
:040000050800158159
:00000001FF
